:100000000C9434000C9451000C9451000C94510049
:100010000C9451000C9451000C9451000C9451001C
:100020000C9451000C9451000C9451000C9451000C
:100030000C9451000C9451000C9451000C945100FC
:100040000C9451000C9451000C9451000C945100EC
:100050000C9451000C9451000C9451000C945100DC
:100060000C9451000C94510011241FBECFEFD8E026
:10007000DEBFCDBF11E0A0E0B1E0ECE9F9E002C0E5
:1000800005900D92AA33B107D9F711E0AAE3B1E0C8
:1000900001C01D92A134B107E1F70E9475000C94D4
:1000A000CC040C9400001F93182F80E29EE420E9FA
:1000B00031E0F9013197F1F70197D9F780E091E04C
:1000C0000E94E301812F0E945F01813061F489E089
:1000D00091E00E94E30184EF0E9455018EE20E94AC
:1000E00055010E94B6011F910895AF92BF92CF9221
:1000F000DF92FF920F931F93CF93DF930E94100123
:100100008CE291E090933E0180933D01789490E2DF
:1001100094B980E388B995B98BE091E00E94E3013E
:100120000E943F0187E70E94530020E23EE498E1ED
:10013000A92E91E0B92E80E9C82E81E0D82E09C001
:10014000C6010197F1F72150304003C020E23EE4A0
:10015000F7CF21153105A1F780E091E00E94E3017E
:1001600087E70E945F01813089F789E091E00E9472
:10017000E30186EF0E94550180E191E00E94E301D6
:1001800087E70E948A01813009F782E191E00E94AD
:10019000E3010E94BA01F82E84E191E00E94E3019C
:1001A0000E94C401082F86E191E00E94E301DF2D47
:1001B000C0E010E08DB79EB70A970FB6F8949EBFC7
:1001C0000FBE8DBFEDB7FEB73196ADB7BEB7129675
:1001D000BC92AE921197F282138215830483CE01F2
:1001E000802B912B978386830C0F1D1F118700870F
:1001F0000E94CE018DB79EB70A960FB6F8949EBFA7
:100200000FBE8DBF0E94B60189E291E00E94E3011A
:1002100080E197E2F6013197F1F70197D9F796CF90
:100220001092C50082E28093C400E0ECF0E080818F
:100230008260808388E18093C10086E08093C20061
:1002400008951F93182F8A3039F480913A018D3028
:1002500019F08DE00E9421018091C00085FFFCCF44
:100260001093C60010933A0180E090E01F9108952A
:100270008091C00087FFFCCF8091C6000895109246
:10028000B90088E48093B80008951092B90098E40A
:100290009093B80094EC9093BC00880F8093BA00C0
:1002A0008091BC0087FFFCCF08958093BB0084E859
:1002B0008093BC008091BC0087FFFCCF0895982FED
:1002C00084EA8093BC008091BC0087FFFCCF8091C2
:1002D000B900887F883039F08091B900887F8031FB
:1002E00011F082E00895990F9093BB0084E8809309
:1002F000BC008091BC0087FFFCCF8091BC0087FFD1
:10030000FCCF8091B900887F883111F083E0089597
:1003100081E00895982F84EA8093BC008091BC000E
:1003200087FFFCCF8091B900887F883039F08091B9
:10033000B900887F803111F082E00895990F9160B3
:100340009093BB0084E88093BC008091BC0087FF41
:10035000FCCF8091BC0087FFFCCF8091B900887FE3
:10036000803411F083E0089581E0089584E980935A
:10037000BC00089584EC8093BC008091BC0087FF92
:10038000FCCF8091BB00089584E88093BC008091ED
:10039000BC0087FFFCCF8091BB000895A0E0B0E0D7
:1003A000E4EDF1E00C94A504FE01359661917191A4
:1003B00080913D0190913E01AF010E94180220966C
:1003C000E2E00C94C1040F931F93CF93DF938C0151
:1003D000E0913D01F0913E01838181FF21C0C0E0A9
:1003E000D0E00DC0E0913D01F0913E0120853185C6
:1003F000BF01F9010995892B11F0CFEFDFEFF8016B
:1004000081918F01882371F7E0913D01F0913E01C8
:10041000208531858AE0BF01F9010995892B11F00A
:10042000CFEFDFEFCE01DF91CF911F910F910895B4
:10043000ABE0B0E0EEE1F2E00C9495043C012B015E
:100440005A01FC0117821682838181FD03C06FEF80
:100450007FEFC6C19AE0892E1E010894211C311C31
:10046000F3012381F20123FD859123FF81912F0167
:10047000882309F4B2C1853239F423FD859123FF25
:1004800081912F01853229F490E0B3010E940B0481
:10049000E7CF982FFF24EE249924FFE1FF15D0F039
:1004A0009B3269F09C3228F4903259F0933291F4E7
:1004B0000EC09D3249F0903369F441E024C052E00F
:1004C000F52A84E0F82A28C098E0F92A25C0E0E15E
:1004D000FE2A22C0F7FC29C0892F80538A3070F48D
:1004E000F6FE05C0989C902C1124980E15C0E89C2F
:1004F000E02C1124E80EF0E2FF2A0EC09E3229F40F
:10050000F6FC6BC140E4F42A07C09C3619F450E8AD
:10051000F52A02C0983649F4F20123FD959123FF94
:1005200091912F01992309F0B8CF892F85548330F9
:1005300018F08052833038F444E050E0A40EB51E29
:100540005FE359830FC0933631F0933779F09335D9
:1005500009F056C020C0F5018081898342E050E057
:10056000A40EB51E610101E010E012C0F501C080CB
:10057000D180F6FC03C06FEF7FEF02C0692D70E001
:1005800042E050E0A40EB51EC6010E9400048C019A
:100590005FE7F52214C0F501C080D180F6FC03C0EE
:1005A0006FEF7FEF02C0692D70E042E050E0A40ED3
:1005B000B51EC6010E94F5038C0150E8F52AF3FE32
:1005C00007C01AC080E290E0B3010E940B04EA94D5
:1005D0008E2D90E008171907A8F30EC0F601F7FC5E
:1005E0008591F7FE81916F0190E0B3010E940B04A9
:1005F000E110EA94015010400115110579F7EAC0A5
:10060000943611F0993669F5F7FE08C0F50120819E
:1006100031814281538184E090E00AC0F5018081FC
:1006200091819C01442737FD4095542F82E090E052
:10063000A80EB91E9FE6F92257FF09C050954095B4
:10064000309521953F4F4F4F5F4FE0E8FE2ACA019A
:10065000B901A1012AE030E00E943704D82ED21857
:1006600040C0953729F41F2D1F7E2AE030E01DC0C1
:100670001F2D197F9F3661F0903720F4983509F0CF
:10068000ACC00FC0903739F0983709F0A6C004C04D
:1006900028E030E00AC0106114FD146020E130E071
:1006A00004C014FD166020E132E017FF08C0F50118
:1006B000608171818281938144E050E008C0F5013E
:1006C00080819181BC0180E090E042E050E0A40E86
:1006D000B51EA1010E943704D82ED2188FE7F82E3C
:1006E000F122F6FE0BC05EEFF522D91438F4F4FEC9
:1006F00007C0F2FC05C08FEEF82202C01D2D01C01C
:10070000192DF4FE0DC0FE01ED0DF11D8081803329
:1007100019F499EEF92208C01F5FF2FE05C003C06C
:100720008F2D867809F01F5F0F2DF3FC14C0F0FEAB
:100730000FC01E1510F09D2C0BC09D2C9E0C911A05
:100740001E2D06C080E290E0B3010E940B041F5FE3
:100750001E15C0F304C01E1510F4E11A01C0EE24EA
:1007600004FF0FC080E390E0B3010E940B0402FF7E
:100770001DC001FD03C088E790E00EC088E590E051
:100780000BC0802F867891F001FF02C08BE201C080
:1007900080E2F7FC8DE290E0B3010E940B0406C0FA
:1007A00080E390E0B3010E940B049A94D914C0F343
:1007B000DA94F101ED0DF11D808190E0B3010E940A
:1007C0000B04DD20A9F706C080E290E0B3010E948F
:1007D0000B04EA94EE20C1F743CEF30166817781E2
:1007E000CB012B96E2E10C94B104FC010590615021
:1007F00070400110D8F7809590958E0F9F1F089537
:10080000FC016150704001900110D8F780959095DF
:100810008E0F9F1F08950F931F93CF93DF938C012B
:10082000EB018B8181FF1BC082FF0DC02E813F81B8
:100830008C819D812817390764F4E881F98101933F
:10084000F983E88306C0E885F985802F0995892B0F
:1008500031F48E819F8101969F838E8302C00FEFBA
:100860001FEFC801DF91CF911F910F910895FA01F9
:10087000AA27283051F1203181F1E8946F936E7FDF
:100880006E5F7F4F8F4F9F4FAF4FB1E03ED0B4E0D0
:100890003CD0670F781F891F9A1FA11D680F791F11
:1008A0008A1F911DA11D6A0F711D811D911DA11D22
:1008B00020D009F468943F912AE0269F1124301932
:1008C000305D3193DEF6CF010895462F4770405DCD
:1008D0004193B3E00FD0C9F7F6CF462F4F70405D7C
:1008E0004A3318F0495D31FD4052419302D0A9F7D7
:1008F000EACFB4E0A6959795879577956795BA95D1
:10090000C9F700976105710508959B01AC010A2E96
:1009100006945795479537952795BA95C9F7620F6D
:10092000731F841F951FA01D08952F923F924F9211
:100930005F926F927F928F929F92AF92BF92CF926F
:10094000DF92EF92FF920F931F93CF93DF93CDB778
:10095000DEB7CA1BDB0B0FB6F894DEBF0FBECDBFF0
:1009600009942A88398848885F846E847D848C84C1
:100970009B84AA84B984C884DF80EE80FD800C81CA
:100980001B81AA81B981CE0FD11D0FB6F894DEBFAD
:0C0990000FBECDBFED010895F894FFCF1D
:10099C005374617274696E6700310074657374000E
:1009AC00320033003400350025643A2025643A20A7
:1009BC002564203A2025640A006F6B0000000002B9
:0A09CC0000000000210100000000FF
:00000001FF
