:100000000C9434000C9451000C9451000C94510049
:100010000C9451000C9451000C9451000C9451001C
:100020000C9451000C9451000C9451000C9451000C
:100030000C9451000C9451000C9451000C945100FC
:100040000C9451000C9451000C9451000C945100EC
:100050000C9451000C9451000C9451000C945100DC
:100060000C9451000C94510011241FBECFEFD8E026
:10007000DEBFCDBF11E0A0E0B1E0E0EAF2E002C0F7
:1000800005900D92AE30B107D9F711E0AEE0B1E0C6
:1000900001C01D92A531B107E1F70E9453000C94F5
:1000A0004E010C940000CF93DF930E941E0180E06C
:1000B00091E09093120180931101789490E294B9A9
:1000C00080E388B995B90E948B0020E137E2C0E94E
:1000D000D1E02115310539F48BEA0E94AB00813063
:1000E00069F020E137E2CE010197F1F7215030406D
:1000F000D1F78BEA0E94AB00813099F70E94A100F2
:100100000E94020120E137E2CE010197F1F7215070
:100110003040D1F7E6CF1092B90088E48093B80060
:1001200008951092B90098E49093B80094EC9093DD
:10013000BC00880F8093BA008091BC0087FFFCCF81
:1001400008958093BB0084E88093BC008091BC003C
:1001500087FFFCCF0895982F84EA8093BC0080919C
:10016000BC0087FFFCCF8091B900887F883039F0D0
:100170008091B900887F803111F082E00895990F55
:100180009093BB0084E88093BC008091BC0087FF03
:10019000FCCF8091BC0087FFFCCF8091B900887FA5
:1001A000883111F083E0089581E00895982F84EA62
:1001B0008093BC008091BC0087FFFCCF8091B90088
:1001C000887F883039F08091B900887F803111F0C4
:1001D00082E00895990F91609093BB0084E880932A
:1001E000BC008091BC0087FFFCCF8091BC0087FFE2
:1001F000FCCF8091B900887F803411F083E00895AE
:1002000081E0089584E98093BC008091BC0087FF61
:10021000FCCF089584EC8093BC008091BC0087FFE4
:10022000FCCF8091BB00089584E88093BC0080914E
:10023000BC0087FFFCCF8091BB0008951092C500E1
:1002400087E68093C400E0ECF0E0808182608083E8
:1002500088E18093C10086E08093C20008951F93D7
:10026000182F8A3061F08091C00085FFFCCF109379
:10027000C60010930E0180E090E01F9108958091D8
:100280000E018D3081F38DE00E942F01ECCF809123
:10029000C00087FFFCCF8091C6000895F894FFCF7F
:0E02A00000000002000000002F01000000001E
:00000001FF
