:100000000C9434000C9451000C9451000C94510049
:100010000C9451000C9451000C9451000C9451001C
:100020000C9451000C9451000C9451000C9451000C
:100030000C9451000C9451000C9451000C945100FC
:100040000C9451000C9451000C9451000C945100EC
:100050000C9451000C9451000C9451000C945100DC
:100060000C9451000C94510011241FBECFEFD8E026
:10007000DEBFCDBF11E0A0E0B1E0E4E8F9E002C0EE
:1000800005900D92A234B107D9F711E0A2E4B1E0D6
:1000900001C01D92A934B107E1F70E9453000C94EE
:1000A000C0040C9400008F929F92AF92BF92CF92A7
:1000B000DF92EF92FF920F931F93CF93DF930E94F3
:1000C00092018EE291E090934601809345017894ED
:1000D00090E294B980E388B995B90E94F10030E0CC
:1000E000E32E31E0F32E2BE0C22E21E0D22E99E157
:1000F000A92E91E0B92E84E2882E81E0982E00E2AC
:10010000C0E9D1E00E94F700182F187F00D000D07E
:10011000EDB7FEB73196ADB7BEB71296FC92EE9230
:100120001197128313820E94C20105B90F900F909C
:100130000F900F90183011F0103121F78BEA0E94C8
:100140005C018091B90000D000D0EDB7FEB73196C8
:10015000ADB7BEB71296DC92CE921197887F82839C
:1001600013820E94C2010F900F900F900F9081E0B8
:100170000E942C018091B90000D000D0EDB7FEB7ED
:100180003196ADB7BEB71296BC92AE921197887FEA
:10019000828313820E94C2010F900F900F900F90E4
:1001A0000E9410018091B90000D000D0EDB7FEB7D9
:1001B0003196ADB7BEB712969C928E921197887FFA
:1001C000828313820E94C20120E137E20F900F90D8
:1001D0000F900F90CE010197F1F721503040D1F7E9
:1001E00091CF1092B90088E48093B800089584EA12
:1001F0008093BC008091BC0087FFFCCF8091B90048
:10020000887F0895880F8093BA0084EC8093BC00A7
:100210008091BC0087FFFCCF8091B900887F089552
:1002200084E98093BC008091BC0084FFFCCF0895DA
:1002300084EC8093BC008091BC0087FFFCCF809150
:10024000BB00089584E88093BC008091BC0087FFC8
:10025000FCCF8091BB0008958093BB0084E880931D
:10026000BC008091BC0087FD08C08CE391E00E9437
:10027000D7018091BC0087FFF8CF8091B900887FBB
:1002800008950F931F93182F110F116004EA812F07
:100290000E942C01803469F00093BC008091BC0066
:1002A00087FFFCCF8091B900812F0E942C01803400
:1002B00099F71F910F9108950F931F93CF93DF9399
:1002C000182F110FCEE3D1E004EA812F0E942C01F8
:1002D000883119F18091B90000D000D0EDB7FEB798
:1002E0003196ADB7BEB71296DC93CE931197887F47
:1002F000828313820E94C2010093BC000F900F9072
:100300000F900F908091BC0087FFFCCF8091B900C7
:10031000812F0E942C018831E9F6DF91CF911F9146
:100320000F9108951092C50087E68093C400E0EC19
:10033000F0E080818260808388E18093C10086E064
:100340008093C20008951F93182F8A3061F0809126
:10035000C00085FFFCCF1093C6001093420180E0DF
:1003600090E01F910895809142018D3081F38DE0DE
:100370000E94A301ECCF8091C00087FFFCCF809149
:10038000C6000895A0E0B0E0E8ECF1E00C94990418
:10039000FE013596619171918091450190914601E0
:1003A000AF010E940C022096E2E00C94B5040F937A
:1003B0001F93CF93DF938C01E0914501F0914601AB
:1003C000838181FF21C0C0E0D0E00DC0E0914501F4
:1003D000F091460120853185BF01F9010995892BEE
:1003E00011F0CFEFDFEFF80181918F01882371F7D2
:1003F000E0914501F0914601208531858AE0BF01F9
:10040000F9010995892B11F0CFEFDFEFCE01DF91D4
:10041000CF911F910F910895ABE0B0E0E2E1F2E0DF
:100420000C9489043C012B015A01FC0117821682AD
:10043000838181FD03C06FEF7FEFC6C19AE0892EF3
:100440001E010894211C311CF3012381F20123FDBC
:10045000859123FF81912F01882309F4B2C1853250
:1004600039F423FD859123FF81912F01853229F4F1
:1004700090E0B3010E94FF03E7CF982FFF24EE2402
:100480009924FFE1FF15D0F09B3269F09C3228F4EB
:10049000903259F0933291F40EC09D3249F090336E
:1004A00069F441E024C052E0F52A84E0F82A28C02B
:1004B00098E0F92A25C0E0E1FE2A22C0F7FC29C015
:1004C000892F80538A3070F4F6FE05C0989C902CDA
:1004D0001124980E15C0E89CE02C1124E80EF0E2DF
:1004E000FF2A0EC09E3229F4F6FC6BC140E4F42AC8
:1004F00007C09C3619F450E8F52A02C0983649F432
:10050000F20123FD959123FF91912F01992309F089
:10051000B8CF892F8554833018F08052833038F457
:1005200044E050E0A40EB51E5FE359830FC093363C
:1005300031F0933779F0933509F056C020C0F501BA
:100540008081898342E050E0A40EB51E610101E084
:1005500010E012C0F501C080D180F6FC03C06FEF3F
:100560007FEF02C0692D70E042E050E0A40EB51E9E
:10057000C6010E94F4038C015FE7F52214C0F50167
:10058000C080D180F6FC03C06FEF7FEF02C0692D01
:1005900070E042E050E0A40EB51EC6010E94E903DF
:1005A0008C0150E8F52AF3FE07C01AC080E290E003
:1005B000B3010E94FF03EA948E2D90E008171907FB
:1005C000A8F30EC0F601F7FC8591F7FE81916F014B
:1005D00090E0B3010E94FF03E110EA940150104043
:1005E0000115110579F7EAC0943611F0993669F5CD
:1005F000F7FE08C0F501208131814281538184E0FA
:1006000090E00AC0F501808191819C01442737FD6B
:100610004095542F82E090E0A80EB91E9FE6F92283
:1006200057FF09C050954095309521953F4F4F4F4A
:100630005F4FE0E8FE2ACA01B901A1012AE030E0DB
:100640000E942B04D82ED21840C0953729F41F2DB4
:100650001F7E2AE030E01DC01F2D197F9F3661F0FC
:10066000903720F4983509F0ACC00FC0903739F0BE
:10067000983709F0A6C004C028E030E00AC0106135
:1006800014FD146020E130E004C014FD166020E188
:1006900032E017FF08C0F50160817181828193818A
:1006A00044E050E008C0F50180819181BC0180E008
:1006B00090E042E050E0A40EB51EA1010E942B0480
:1006C000D82ED2188FE7F82EF122F6FE0BC05EEF7F
:1006D000F522D91438F4F4FE07C0F2FC05C08FEE01
:1006E000F82202C01D2D01C0192DF4FE0DC0FE011F
:1006F000ED0DF11D8081803319F499EEF92208C0C7
:100700001F5FF2FE05C003C08F2D867809F01F5FC2
:100710000F2DF3FC14C0F0FE0FC01E1510F09D2C21
:100720000BC09D2C9E0C911A1E2D06C080E290E0FD
:10073000B3010E94FF031F5F1E15C0F304C01E1506
:1007400010F4E11A01C0EE2404FF0FC080E390E032
:10075000B3010E94FF0302FF1DC001FD03C088E733
:1007600090E00EC088E590E00BC0802F867891F075
:1007700001FF02C08BE201C080E2F7FC8DE290E055
:10078000B3010E94FF0306C080E390E0B3010E9422
:10079000FF039A94D914C0F3DA94F101ED0DF11D21
:1007A000808190E0B3010E94FF03DD20A9F706C01D
:1007B00080E290E0B3010E94FF03EA94EE20C1F7CB
:1007C00043CEF30166817781CB012B96E2E10C9455
:1007D000A504FC010590615070400110D8F7809588
:1007E00090958E0F9F1F0895FC01615070400190FD
:1007F0000110D8F7809590958E0F9F1F08950F9345
:100800001F93CF93DF938C01EB018B8181FF1BC082
:1008100082FF0DC02E813F818C819D812817390771
:1008200064F4E881F9810193F983E88306C0E885DF
:10083000F985802F0995892B31F48E819F8101964E
:100840009F838E8302C00FEF1FEFC801DF91CF910E
:100850001F910F910895FA01AA27283051F12031F4
:1008600081F1E8946F936E7F6E5F7F4F8F4F9F4F44
:10087000AF4FB1E03ED0B4E03CD0670F781F891F86
:100880009A1FA11D680F791F8A1F911DA11D6A0F54
:10089000711D811D911DA11D20D009F468943F9107
:1008A0002AE0269F11243019305D3193DEF6CF0106
:1008B0000895462F4770405D4193B3E00FD0C9F7CC
:1008C000F6CF462F4F70405D4A3318F0495D31FD39
:1008D0004052419302D0A9F7EACFB4E0A69597958C
:1008E000879577956795BA95C9F700976105710562
:1008F00008959B01AC010A2E0694579547953795AC
:100900002795BA95C9F7620F731F841F951FA01D05
:1009100008952F923F924F925F926F927F928F92A3
:100920009F92AF92BF92CF92DF92EF92FF920F937E
:100930001F93CF93DF93CDB7DEB7CA1BDB0B0FB688
:10094000F894DEBF0FBECDBF09942A883988488845
:100950005F846E847D848C849B84AA84B984C884DB
:10096000DF80EE80FD800C811B81AA81B981CE0FD2
:10097000D11D0FB6F894DEBF0FBECDBFED010895B7
:04098000F894FFCF19
:1009840073746172743A2025780A006D745F73740D
:100994006172743A2025780A0077726974653A2086
:1009A40025780A0073746F703A2025780A000000D5
:1009B400000200000000A301000000002E002578C2
:0209C400000031
:00000001FF
