:100000000C9434000C943E000C943E000C943E0082
:100010000C943E000C943E000C943E000C943E0068
:100020000C943E000C943E000C943E000C943E0058
:100030000C943E000C943E000C943E000C943E0048
:100040000C943E000C943E000C943E000C943E0038
:100050000C943E000C943E000C943E000C943E0028
:100060000C943E000C943E0011241FBECFEFD8E04C
:10007000DEBFCDBF0E9440000C94E9000C9400004C
:100080001F93789410E214B980E388B915B90E94DF
:10009000560088EA91E60197F1F788E00E94A100F6
:1000A000813011F015B9FFCF2D98FDCF1092B90016
:1000B00088EF8093B80008951092B90098EF90935C
:1000C000B80094EC9093BC00880F8093BA008091A4
:1000D000BC0087FFFCCF08958093BB0084E8809329
:1000E000BC008091BC0087FFFCCF0895982F84EA64
:1000F0008093BC008091BC0087FFFCCF8091B90049
:10010000887F883039F08091B900887F803111F084
:1001100082E00895990F9093BB0084E88093BC001F
:100120008091BC0087FFFCCF8091BC0087FFFCCF93
:100130008091B900887F883111F083E0089581E0D3
:100140000895982F84EA8093BC008091BC0087FFBB
:10015000FCCF8091B900887F883039F08091B90058
:10016000887F803111F082E00895990F916090931B
:10017000BB0084E88093BC008091BC0087FFFCCF6B
:100180008091BC0087FFFCCF8091B900887F8034CC
:1001900011F084E0089581E0089584E98093BC0023
:1001A0008091BC0087FFFCCF089584EC8093BC0055
:1001B0008091BC0087FFFCCF8091BB00089584E84C
:1001C0008093BC008091BC0087FFFCCF8091BB0076
:0601D0000895F894FFCF32
:00000001FF
