:100000000EC015C014C013C012C011C010C00FC064
:100010000EC00DC00CC00BC00AC009C008C011241E
:100020001FBECFE5D2E0DEBFCDBF5AD062C0E8CF61
:1000300025E030E041EFC9010197F1F74EB9B29BDD
:10004000FECFC9010197F1F74EB9769BF4CF85E059
:1000500090E00197F1F70895C298B89A8FB980EFB0
:100060008EB9E6CFC298B8988FEF8EB9E1DF8FB125
:100070000895C298B89881EF8EB9DADF8FB10895EC
:10008000C09AC29ABA9AB89A8FEF8FB98AE28DB99C
:1000900080EF8EB90895C29AB29BFECFE5E0F0E002
:1000A0003197F1F7C098E5E0F0E03197F1F7C298A9
:1000B000C09A880FD1DFC198D5DF91E0811190E01F
:1000C000892F0895C098C29AB29BFECF85E090E038
:1000D0000197F1F7C09A85E090E00197F1F7089554
:1000E00082E087BBC19ACCDF88E0D5DF8FEFB4DF39
:0600F000FDCFF894FFCFE4
:00000001FF
