:100000000EC015C014C013C012C011C010C00FC064
:100010000EC00DC00CC00BC00AC009C008C011241E
:100020001FBECFE5D2E0DEBFCDBF02D03CC0E8CFDF
:1000300082E087BBC19A88E002D0C198FFCF982F99
:10004000C298C098BA98B89848EA30E720EF4DB9FE
:100050003EB9779BFECFB898B299C09AB09911C0BB
:1000600088EF8DB92EB9769BFECF8FB1882321F012
:100070008FB18695891759F71FB8B89A8EE78EB950
:10008000089588EAEECF8FB9B89AC09A80EF8EB9FA
:10009000769BFECFB8988EEF8EB9769BFECF8FB150
:0A00A000811181E00895F894FFCF6C
:00000001FF
