:100000000C9434000C943E000C943E000C943E0082
:100010000C943E000C943E000C943E000C943E0068
:100020000C943E000C943E000C943E000C943E0058
:100030000C943E000C943E000C943E000C943E0048
:100040000C943E000C943E000C943E000C943E0038
:100050000C943E000C943E000C943E000C943E0028
:100060000C943E000C943E0011241FBECFEFD8E04C
:10007000DEBFCDBF0E9440000C94CD000C94000068
:100080001F93789480E284B90E944E008BEA0E940C
:100090005F0010E20E94B90013B9FCCF1092B900C2
:1000A00088E48093B800089584EA8093BC0080912E
:1000B000BC0087FFFCCF8091B900887F0895880F2E
:1000C0008093BA0084EC8093BC008091BC0087FFD1
:1000D000FCCF8091B900887F08958093BB0084E8AD
:1000E0008093BC008091BC0087FFFCCF8091B90059
:1000F000887F0895982F990F24E834EA9093BB00E5
:100100002093BC008091BC0087FFFCCF8091B90098
:10011000887F883149F03093BC008091BC0087FF14
:10012000FCCF8091B900EACF0895982F990F916084
:1001300024E834EA9093BB002093BC008091BC007B
:1001400087FFFCCF8091B900887F803449F03093DD
:10015000BC008091BC0087FFFCCF8091B900EACF42
:10016000089584E98093BC008091BC0084FFFCCF9B
:10017000089584EC8093BC008091BC0087FFFCCF85
:100180008091BB00089584E88093BC008091BC00FE
:0E01900087FFFCCF8091BB000895F894FFCF4D
:00000001FF
