:100000000C9434000C943E000C943E000C943E0082
:100010000C943E000C943E000C943E000C943E0068
:100020000C943E000C943E000C943E000C943E0058
:100030000C943E000C943E000C943E000C943E0048
:100040000C943E000C943E000C943E000C943E0038
:100050000C943E000C943E000C943E000C943E0028
:100060000C943E000C943E0011241FBECFEFD8E04C
:10007000DEBFCDBF0E94D1000C94DC000C940000C8
:100080001092B90088E48093B80008951092B900E6
:1000900098E49093B80094EC9093BC00880F809300
:1000A000BA008091BC0087FFFCCF08958093BB000D
:1000B00084E88093BC008091BC0087FFFCCF08954A
:1000C00094EA9093BC009091BC0097FFFCCF909174
:1000D000B900987F983039F09091B900987F9031AD
:1000E00011F082E00895880F8093BB0084E880932C
:1000F000BC008091BC0087FFFCCF8091BC0087FFD3
:10010000FCCF8091B900887F883111F083E0089599
:1001100081E0089594EA9093BC009091BC0097FF11
:10012000FCCF9091B900987F983039F09091B90048
:10013000987F903111F082E00895880F816080935C
:10014000BB0084E88093BC008091BC0087FFFCCF9B
:100150008091BC0087FFFCCF8091B900887F8034FC
:1001600011F083E0089581E0089584E98093BC0054
:100170008091BC0087FFFCCF089584EC8093BC0085
:100180008091BC0087FFFCCF8091BB00089584E87C
:100190008093BC008091BC0087FFFCCF8091BB00A6
:1001A00008957894C0E2C4B988E00E944600C5B9B9
:0C01B0000E94BD00C3B9FCCFF894FFCF43
:00000001FF
